:100000000C945A000C9477000C9477000C947700B1
:100010000C9477000C9477000C9477000C94770084
:100020000C9477000C9477000C9477000C94770074
:100030000C9477000C9477000C9477000C94770064
:100040000C94BF000C9477000C9477000C9477000C
:100050000C9477000C9477000C9477000C94770044
:100060000C9477000C947700000024272A000025C8
:10007000282B000023262904040404040404040299
:100080000202020202030303030303010204081035
:100090002040800102040810200102040810200002
:1000A0000000070002010000030406000000000039
:1000B0000000000011241FBECFEFD4E0DEBFCDBF93
:1000C00011E0A0E0B1E0E6EAF4E002C005900D9294
:1000D000A430B107D9F711E0A4E0B1E001C01D924E
:1000E000AF30B107E1F70E94B8000C9451020C94B4
:1000F000000080910001909101010895809102011A
:10010000909103010895882311F061E001C060E03F
:10011000809102010E94BA01089560E0809102017D
:100120000E94BA010895809100010E9405029093F7
:100130000501809304011816190634F48091060114
:1001400091E0892780930601809106010E94830037
:10015000089560E088E00E949C0161E082E00E94D6
:100160009C0161E088E00E94BA010E948D00089520
:100170000E9462010E94A9000E949300FDCF1F927D
:100180000F920FB60F9211242F938F939F93AF93DB
:10019000BF938091070190910801A0910901B0914E
:1001A0000A018050904CAF4FBF4F8093070190934E
:1001B0000801A0930901B0930A0127C080910701AB
:1001C00090910801A0910901B0910A0180589E43C5
:1001D000A040B0408093070190930801A0930901CB
:1001E000B0930A0180910B0190910C01A0910D0137
:1001F000B0910E010196A11DB11D80930B0190934A
:100200000C01A0930D01B0930E0180910701909114
:100210000801A0910901B0910A0181589E43A040B4
:10022000B04060F6BF91AF919F918F912F910F9049
:100230000FBE0F901F9018958FB7F89420910B0167
:1002400030910C0140910D0150910E018FBFB90109
:10025000CA010895EF92FF920F931F937B018C01C7
:100260008FB7F89440910B0150910C0160910D01F2
:1002700070910E018FBF2FB7F89480910B01909170
:100280000C01A0910D01B0910E012FBF841B950BA5
:10029000A60BB70B8E159F05A007B10760F31F9142
:1002A0000F91FF90EF900895019759F0FC01EE0F28
:1002B000FF1FEE0FFF1F32978FB7F8943197F1F7BA
:1002C0008FBF0895789484B5826084BD84B58160C1
:1002D00084BD85B5826085BD85B5816085BDEEE64E
:1002E000F0E0808181608083E1E8F0E080818260DD
:1002F0008083808181608083E0E8F0E0808181609C
:100300008083E1EBF0E0808184608083E0EBF0E0CB
:10031000808181608083EAE7F0E08081846080836F
:100320008081826080838081816080838081806819
:1003300080831092C1000895282F30E0C9018557AD
:100340009F4FFC01949129583F4FF90184918823D4
:1003500081F0E82FF0E0E859FF4FE491F0E06623E8
:1003600029F4808190958923808308958081892B49
:1003700080830895482F50E0CA0181569F4FFC01A9
:100380002491CA0185579F4FFC01949149585F4FB2
:10039000FA0134913323C1F1222331F1233021F4C6
:1003A000809180008F7705C0243031F480918000E7
:1003B0008F7D8093800018C0213019F484B58F7729
:1003C00004C0223021F484B58F7D84BD0DC0263059
:1003D00021F48091B0008F7705C0273029F48091F7
:1003E000B0008F7D8093B000E32FF0E0E359FF4F22
:1003F000E491F0E0662329F480819095892380833D
:1004000008958081892B80830895482F50E0CA0188
:1004100081569F4FFC012491CA0185579F4FFC01D3
:10042000949149585F4FFA013491332319F420E035
:1004300030E035C0222331F1233021F48091800057
:100440008F7705C0243031F4809180008F7D8093B8
:10045000800018C0213019F484B58F7704C0223091
:1004600021F484B58F7D84BD0DC0263021F48091A8
:10047000B0008F7705C0273029F48091B0008F7DC0
:100480008093B000E32FF0E0EE58FF4FE491F0E0EE
:10049000808120E030E0892311F021E030E0C901C3
:0604A0000895F894FFCF5F
:0404A6000800020048
:00000001FF
