:100000000C9462000C948A000C948A000C948A0070
:100010000C948A000C948A000C948A000C948A0038
:100020000C948A000C948A000C948A000C948A0028
:100030000C948A000C948A000C948A000C948A0018
:100040000C94F0020C948A000C948A010C948A009F
:100050000C948A000C948A000C948A000C948A00F8
:100060000C948A000C948A000000000024002700F1
:100070002A0000000000250028002B0000000000DE
:1000800023002600290004040404040404040202DA
:100090000202020203030303030301020408102007
:1000A0004080010204081020010204081020000012
:1000B0000007000201000003040600000000000029
:1000C00000007F0211241FBECFEFD4E0DEBFCDBF02
:1000D00011E0A0E0B1E0E4EFF9E002C005900D927C
:1000E000A231B107D9F711E0A2E1B1E001C01D9240
:1000F000A03CB107E1F710E0C4ECD0E004C02297C7
:10010000FE010E94F404C23CD107C9F70E9483019A
:100110000C94F8040C940000882329F080910401C9
:1001200060E00E94F2030895882329F08091040181
:1001300061E00E94F20308958091040161E00E9451
:10014000F20364E670E080E090E00E946E0380912C
:10015000040160E00E94F20364E670E080E090E059
:100160000E946E030895882311F00E949C00089558
:1001700080911801909119010197A9F482EA91E008
:100180000E943002882379F082EA91E00E944402C2
:1001900090931301809312018334910521F41092FE
:1001A000190110921801089582EA91E060E071E06F
:1001B0000E94E50268EC70E080E090E00E946E032F
:1001C000089581E090E0909319018093180182EAEC
:1001D00091E062E071E00E94E502089580910601DD
:1001E0000E943F049093150180931401892BF1F52F
:1001F0000E94600320911A0130911B0140911C0163
:1002000050911D01621B730B840B950B209108010B
:100210003091090140910A0150910B0126173707CF
:100220004807590718F58091160190911701892BFD
:1002300049F481E090E090931701809316010E94A9
:10024000E1000AC00E94D40010921701109216011A
:1002500010921901109218010E94600360931A0114
:1002600070931B0180931C0190931D010E94B800A4
:100270008091160190911701019711F020E008C0BC
:1002800020E08091180190911901019709F421E073
:10029000822F0E94B300809116019091170101975F
:1002A00011F020E008C020E0809118019091190120
:1002B000892B09F421E0822F0E94940020E0809194
:1002C000160190911701892B09F421E0822F0E94D9
:1002D0008C0008958091040161E00E94D203809116
:1002E000060160E00E94D20382EA91E040E855E214
:1002F00060E070E00E94C7018091040160911601E6
:100300000E94F20308950E9498030E946A010E94CD
:10031000EE00FDCF1F920F920FB60F9211242F9374
:100320003F934F935F936F937F938F939F93AF937D
:10033000BF93EF93FF934091C600E0919E01F0912F
:100340009F01CF01019660E870E00E948E049C013D
:100350008091A0019091A1012817390739F0E25E40
:10036000FE4F408330939F0120939E01FF91EF91B8
:10037000BF91AF919F918F917F916F915F914F91BD
:100380003F912F910F900FBE0F901F901895AF9235
:10039000BF92CF92DF92EF92FF920F931F93CF9372
:1003A000DF936C017A018B01DC011496AD90BC9057
:1003B0001597CB01BA0122E030E040E050E00E9406
:1003C000C304205C3D4B404F5F4FCA01B901A801F7
:1003D00097010E94C304C901DA010197A109B1097B
:1003E000292F3A2F4B2F552747FD5A950196A11DCE
:1003F000B11DE5012883E601EE81FF8181508083F4
:10040000EA85FB85208141E050E0CA010E8402C0EC
:10041000880F991F0A94E2F7282B2083EA85FB8531
:100420002081CA010F8402C0880F991F0A94E2F745
:10043000282B2083EA85FB858081088802C0440F31
:10044000551F0A94E2F7842B8083DF91CF911F918F
:100450000F91FF90EF90DF90CF90BF90AF900895F5
:10046000DC011296ED91FC911397E058FF4F8191BA
:10047000919180589F4F20813181821B930B60E8BE
:1004800070E00E948E040895CF93DF93DC011296F2
:10049000ED91FC911397EF01CE57DF4F48815981C1
:1004A000E058FF4F80819181E058F0408417950714
:1004B00019F42FEF3FEF0CC0E40FF51F2081CA01A4
:1004C000019660E870E00E948E049983888330E092
:1004D000C901DF91CF910895FC01A085B1852189E3
:1004E0008C9190E0022E02C0959587950A94E2F7D0
:1004F00080FFF6CF0484F585E02D6083089580E1C8
:1005000091E09093A3018093A2018EE191E09093FA
:10051000A5018093A40185EC90E09093A7018093BE
:10052000A60184EC90E09093A9018093A80180EC4F
:1005300090E09093AB018093AA0181EC90E09093BE
:10054000AD018093AC0186EC90E09093AF01809375
:10055000AE0184E08093B00183E08093B10187E035
:100560008093B20185E08093B30108950F931F93A8
:10057000CF93DF938C01EB0109C02196D801ED9157
:10058000FC910190F081E02DC801099568816623F6
:10059000A1F7DF91CF911F910F9108950F931F93B2
:1005A0008C01DC01ED91FC910190F081E02D6DE07A
:1005B0000995D801ED91FC910190F081E02DC801E1
:1005C0006AE009951F910F9108950F931F938C0175
:1005D0000E94B602C8010E94CE021F910F91089599
:1005E0001F920F920FB60F9211242F938F939F9308
:1005F000AF93BF938091B4019091B501A091B601E2
:10060000B091B7010196A11DB11D8093B4019093E3
:10061000B501A093B601B093B7018091B801909154
:10062000B901A091BA01B091BB018050904CAF4F7D
:10063000BF4F8093B8019093B901A093BA01B093D2
:10064000BB0127C08091B8019091B901A091BA0176
:10065000B091BB0180589E43A040B0408093B80148
:100660009093B901A093BA01B093BB018091BC01F2
:100670009091BD01A091BE01B091BF010196A11D55
:10068000B11D8093BC019093BD01A093BE01B093B6
:10069000BF018091B8019091B901A091BA01B091C8
:1006A000BB0181589E43A040B04060F6BF91AF911E
:1006B0009F918F912F910F900FBE0F901F901895C3
:1006C0008FB7F8942091BC013091BD014091BE01DB
:1006D0005091BF018FBFB901CA010895EF92FF92F7
:1006E0000F931F937B018C018FB7F8944091BC014D
:1006F0005091BD016091BE017091BF018FBF2FB7B6
:10070000F8948091BC019091BD01A091BE01B0917F
:10071000BF012FBF841B950BA60BB70BE816F9067C
:100720000A071B0760F71F910F91FF90EF90089544
:10073000789484B5826084BD84B5816084BD85B5BC
:10074000826085BD85B5816085BDEEE6F0E0808183
:1007500081608083E1E8F0E0808182608083808135
:1007600081608083E0E8F0E0808181608083E1EB5C
:10077000F0E0808184608083E0EBF0E08081816044
:100780008083EAE7F0E080818460808380818260FA
:1007900080838081816080838081806880831092E3
:1007A000C1000895282F30E0C90186569F4FFC01F3
:1007B00094912A573F4FF9018491882391F0E82FB3
:1007C000F0E0EE0FFF1FE859FF4FA591B4916623AB
:1007D00029F48C91909589238C9308958C91892B81
:1007E0008C930895482F50E0CA0182559F4FFC0119
:1007F0002491CA0186569F4FFC0194914A575F4F3E
:10080000FA0134913323D1F1222331F1233021F441
:10081000809180008F7705C0243031F48091800072
:100820008F7D8093800018C0213019F484B58F77B4
:1008300004C0223021F484B58F7D84BD0DC02630E4
:1008400021F48091B0008F7705C0273029F4809182
:10085000B0008F7D8093B000E32FF0E0EE0FFF1F1C
:10086000EE58FF4FA591B491662329F48C91909591
:1008700089238C9308958C91892B8C930895682FEC
:1008800070E0CB0182559F4FFC012491CB0186562D
:100890009F4FFC0144916A577F4FFB01949199232C
:1008A00019F420E030E038C0222331F1233021F464
:1008B000809180008F7705C0243031F480918000D2
:1008C0008F7D8093800018C0213019F484B58F7714
:1008D00004C0223021F484B58F7D84BD0DC0263044
:1008E00021F48091B0008F7705C0273029F48091E2
:1008F000B0008F7D8093B000892F90E0880F991F02
:1009000084589F4FFC01A591B4918C9120E030E078
:10091000842311F021E030E0C901089597FB092EEE
:1009200007260AD077FD04D049D006D000201AF45B
:10093000709561957F4F0895F6F7909581959F4F3B
:100940000895A1E21A2EAA1BBB1BFD010DC0AA1F10
:10095000BB1FEE1FFF1FA217B307E407F50720F028
:10096000A21BB30BE40BF50B661F771F881F991FA3
:100970001A9469F760957095809590959B01AC01EC
:10098000BD01CF01089597FB092E05260ED057FD16
:1009900004D0D7DF0AD0001C38F45095409530952C
:1009A00021953F4F4F4F5F4F0895F6F790958095F3
:1009B000709561957F4F8F4F9F4F0895AA1BBB1B6A
:1009C00051E107C0AA1FBB1FA617B70710F0A61B4F
:1009D000B70B881F991F5A95A9F780959095BC0170
:1009E000CD010895EE0FFF1F0590F491E02D0994BD
:0409F000F894FFCFA9
:1009F40053004400050007002C0100000000000023
:020A04006C0282
:00000001FF
